S00E00004155544F4E432E737265634C
S11300000C942A000C943B030C9464030C948D030D
S11300100C9447000C9447000C941D080C94E507BD
S11300200C9447000C94AB070C944C070C941107E8
S11300300C9447000C9447000C9447000C94470020
S11300400C9447000C9447000C9447000C94470010
S11300500C94470011241FBECFE5D8E0DEBFCDBF0E
S113006011E0A0E6B0E0EAEAF4E102C005900D92E6
S1130070AE34B107D9F721E0AEE4B1E001C01D927E
S1130080AC36B207E1F70E94CA050C94530A0C94EB
S1130090000081E690E00E94E3042FEF83ED90E3FB
S11300A0215080409040E1F700C000000E94C70446
S11300B063E081E00E94D10481E790E00E94E304C0
S11300C064E082E00E94D1048CE790E00E94E304A3
S11300D02FEF83ED90E3215080409040E1F700C082
S11300E000000E94C70484E890E00E94E3042FEF1C
S11300F083ED90E3215080409040E1F700C0000080
S11301000E94C70483E990E00E94E30460E082E077
S11301100E94D10482EA90E00E94E3042FEF83ED71
S113012090E3215080409040E1F700C000000E941D
S1130130C70482EB90E00E94E30460E082E00E9446
S1130140D10483EC90E00E94E3042FEF83ED90E36D
S1130150215080409040E1F700C000000E94C70495
S113016008950E9484080E94A3040E9428040E9407
S11301701C0141E067E083E00E94920141E063E0FA
S113018080E00E94920140E063E083E00E949201DB
S113019040E062E083E00E94920108958230A1F081
S11301A028F4882361F1813031F008958330A9F077
S11301B08430E1F0089561E081E00E943B0161E058
S11301C082E00E943B01089562E081E00E943B01CD
S11301D062E082E00E943B01089562E081E00E94B7
S11301E03B0161E082E00E943B01089561E081E00F
S11301F00E943B0162E082E00E943B01089581E09D
S11302000E94810182E00E94810108952FEF81EE16
S113021094E0215080409040E1F700C0000080E06D
S11302200E94CE002FEF80E792E021508040904062
S1130230E1F700C00000089541E064E083E00E941B
S1130240920141E065E083E00E94920141E063E0B5
S113025082E00E94920141E064E082E00E94920107
S113026041E065E082E00E94920141E066E082E0C4
S11302700E9492010895CF93C62F813019F08230E5
S113028001F13DC041E064E083E00E940802C13016
S113029059F441E063E082E00E94080240E064E037
S11302A082E00E9408022BC0C23049F540E063E0BE
S11302B082E00E94080241E064E082E00E940802B9
S11302C01EC041E065E083E00E940802C13059F499
S11302D041E065E082E00E94080240E066E082E0DE
S11302E00E9408020CC0C23051F440E065E082E094
S11302F00E94080241E066E082E00E940802CF9179
S11303000895813019F0823039F0089540E064E0B6
S113031083E00E940802089540E065E083E00E94C3
S113032008020895843008F072C0683008F06FC085
S1130330423008F06CC0813001F130F08230B1F10C
S1130340833009F44CC00895413059F42AB381E054
S113035090E002C0880F991F6A95E2F7822B8ABB4E
S113036008952AB381E090E002C0880F991F6A952E
S1130370E2F7809582238ABB0895413059F427B36C
S113038081E090E002C0880F991F6A95E2F7822B02
S113039087BB089527B381E090E002C0880F991FBE
S11303A06A95E2F78095822387BB0895413059F41A
S11303B024B381E090E002C0880F991F6A95E2F7A8
S11303C0822B84BB089524B381E090E002C0880F9F
S11303D0991F6A95E2F78095822384BB0895413082
S11303E059F421B381E090E002C0880F991F6A9507
S11303F0E2F7822B81BB089521B381E090E002C033
S1130400880F991F6A95E2F78095822381BB08952E
S1130410843008F072C0683008F06FC0423008F0D1
S11304206CC0813001F130F08230B1F1833009F4D5
S11304304CC00895413059F42BB381E090E002C0E0
S1130440880F991F6A95E2F7822B8BBB08952BB313
S113045081E090E002C0880F991F6A95E2F78095C9
S113046082238BBB0895413059F428B381E090E096
S113047002C0880F991F6A95E2F7822B88BB089502
S113048028B381E090E002C0880F991F6A95E2F7D3
S11304908095822388BB0895413059F425B381E0C7
S11304A090E002C0880F991F6A95E2F7822B85BB02
S11304B0089525B381E090E002C0880F991F6A95E2
S11304C0E2F78095822385BB0895413059F422B325
S11304D081E090E002C0880F991F6A95E2F7822BB1
S11304E082BB089522B381E090E002C0880F991F77
S11304F06A95E2F78095822382BB0895843008F0E0
S11305004EC0683008F04BC04115510509F447C08E
S11305108130B1F028F0823019F1833089F10895E7
S113052089B390E002C0959587956A95E2F780FFBC
S113053004C081E0FA0180830895FA0110820895CD
S113054086B390E002C0959587956A95E2F780FF9F
S113055004C081E0FA0180830895FA0110820895AD
S113056083B390E002C0959587956A95E2F780FF82
S113057004C081E0FA0180830895FA01108208958D
S113058080B390E002C0959587956A95E2F780FF65
S113059004C081E0FA0180830895FA01108208956D
S11305A0813061F120F0823009F44FC00895611167
S11305B007C085B7816085BF85B7826085BF1AC0D3
S11305C0613039F485B78E7F85BF85B7826085BF7A
S11305D011C0623039F485B78E7F85BF85B78D7FB2
S11305E085BF08C0633031F485B7816085BF85B7A6
S11305F08D7F85BF8BB780648BBF0895611107C061
S113060085B7846085BF85B7886085BF1AC06130AF
S113061039F485B78B7F85BF85B7886085BF11C0E6
S1130620623039F485B78B7F85BF85B7877F85BFF7
S113063008C0633031F485B7846085BF85B7877F90
S113064085BF8BB780688BBF0895611104C084B7E0
S1130650806484BF05C0613019F484B78F7B84BF84
S11306608BB780628BBF0895009721F0909353015C
S11306708093520108951F920F920FB60F92112486
S11306802F933F934F935F936F937F938F939F9396
S1130690AF93BF93EF93FF93E0915201F091530115
S11306A0309709F00995FF91EF91BF91AF919F9118
S11306B08F917F916F915F914F913F912F910F9007
S11306C00FBE0F901F9018951F920F920FB60F92A6
S11306D011242F933F934F935F936F937F938F9343
S11306E09F93AF93BF93EF93FF93E0915001F091E9
S11306F05101309709F00995FF91EF91BF91AF91A6
S11307009F918F917F916F915F914F913F912F9125
S11307100F900FBE0F901F9018951F920F920FB657
S11307200F9211242F933F934F935F936F937F9373
S11307308F939F93AF93BF93EF93FF93E0914E01F9
S1130740F0914F01309709F00995FF91EF91BF9116
S1130750AF919F918F917F916F915F914F913F9155
S11307602F910F900FBE0F901F9018958FB7806830
S11307708FBF0895CF93C82F80FF06C041E064E087
S113078080E00E94080205C040E064E080E00E942E
S11307900802C1FF06C041E065E080E00E94080253
S11307A005C040E065E080E00E940802C2FF06C088
S11307B041E066E080E00E94080205C040E066E097
S11307C080E00E940802C3FF06C041E067E080E0C9
S11307D00E94080205C040E067E080E00E94080231
S11307E0CF910895CF93C82F40E061E081E00E944B
S11307F0080240E062E081E00E9408028C2F8295AA
S11308008F700E94BA0341E063E081E00E94080215
S11308108FE99FE00197F1F700C0000040E063E03A
S113082081E00E9408028C2F0E94BA0341E063E039
S113083081E00E9408028FE99FE00197F1F700C070
S1130840000040E063E081E00E940802CF91089537
S11308502FE785EB91E0215080409040E1F700C004
S1130860000040E061E081E00E94080240E062E0B4
S113087081E00E94080282E00E94BA0341E063E042
S113088081E00E9408028FE99FE00197F1F700C020
S1130890000040E063E081E00E94080288E20E94D8
S11308A0F20390EF9A95F1F78CE00E94F20320EFA7
S11308B02A95F1F781E00E94F2038FE39FE101970B
S11308C0F1F700C0000086E00E94F2038FE39FE18D
S11308D00197F1F700C000000895CF93C82F41E0BD
S11308E061E081E00E94080240E062E081E00E9451
S11308F008028C2F82958F700E94BA0341E063E056
S113090081E00E9408028FE99FE00197F1F700C09F
S1130910000040E063E081E00E9408028C2F0E9406
S1130920BA0341E063E081E00E9408028FE99FE09E
S11309300197F1F700C0000040E063E081E00E940D
S11309400802CF91089541E064E080E00E949201A2
S113095041E065E080E00E94920141E066E080E0D1
S11309600E94920141E067E080E00E94920141E030
S113097061E081E00E94920141E062E081E00E9436
S1130980920141E063E081E00E949201089581E0D8
S11309900E94F2038FE39FE10197F1F700C000008A
S11309A00895813039F4803168F480E8860F0E941C
S11309B0F2030895823031F4603120F480EC860F24
S11309C00E94F2030895CF92DF92EF92FF921F9359
S11309D0CF93DF93EC01892B19F467C09F5F01C0AB
S11309E090E0FE01E90FF11D20812111F7CF913133
S11309F078F030E080E1FE01E80FF11D2081203223
S1130A0019F03F5F8150F7CF913110F03031E9F4A4
S1130A10913268F015C0103121F460E082E00E9448
S1130A20D104F70180810E946D041F5F01C010E0B2
S1130A307E01E10EF11CF70180818111ECCF35C0FC
S1130A4084ED90E00E94E30430C0E12C80E1FE01DB
S1130A50E80FF11D2081203219F0E3948150F7CF83
S1130A60F12C9701290F311DC9010197819784F059
S1130A7018C0C701810F911D419721F460E082E005
S1130A800E94D104F60180810E946D041F5F01C0A1
S1130A9010E06E01C10ED11CF60180818111E9CFF5
S1130AA004C084ED90E00E94E304DF91CF911F9194
S1130AB0FF90EF90DF90CF900895CF92DF92EF9266
S1130AC0FF920F931F938B019C01672B682B692B5B
S1130AD049F580E30E946D0445C0DC01CB01880F19
S1130AE0991FAA1FBB1F6C017D01CC0CDD1CEE1CE1
S1130AF0FF1CCC0CDD1CEE1CFF1CC80ED91EEA1E0C
S1130B00FB1EC901B8012AE030E040E050E00E9439
S1130B10310A6C0D7D1D8E1D9F1D022F132F242F56
S1130B20352F04C061E070E080E090E0011511050C
S1130B302105310591F62AE030E040E050E00E94C2
S1130B40310AE22EF32E042F152F80E3860F0E9424
S1130B506D046E2D7F2D802F912F613071058105DD
S1130B60910549F71F910F91FF90EF90DF90CF907F
S1130B70089580E00E94CE0080E00E9401070E9458
S1130B80C70463E081E00E94D1048FEE90E00E94EC
S1130B90E304FFCFCF93DF93CDB7DEB72C970FB627
S1130BA0F894DEBF0FBECDBF0E94B1000E94B60311
S1130BB089EB95E00E94340361E080E00E94D0025A
S1130BC00E944900CE0101960E949B08CBC081E09F
S1130BD00E94CE008EE10E9401070E940601CE0110
S1130BE005960E949B088FE39CE90197F1F700C0EA
S1130BF000000E94C70489EF90E00E94E3046D8125
S1130C007E818F8198850E945D0581E191E00E943B
S1130C10E30481E00E94CE0080E00E9401070E946C
S1130C200601CE0101960E949B088FE39CE901977F
S1130C30F1F700C000000E94C70489EF90E00E9411
S1130C40E30469817A818B819C810E945D0581E145
S1130C5091E00E94E30481E00E94CE0082EE0E94B3
S1130C6001070E940601CE0109960E949B088FE3AA
S1130C709CE90197F1F700C000000E94C70489EFC6
S1130C8090E00E94E30469857A858B859C850E94A7
S1130C905D0581E191E00E94E30480E00E94010788
S1130CA08D819E81AF81B88549855A856B857C8508
S1130CB084179507A607B70708F109811A812B81C4
S1130CC03C8180179107A207B307C0F008321105D1
S1130CD02105310598F483E00E94CE000E94C704E8
S1130CE085E191E00E94E3049FEF23EF81E09150BE
S1130CF020408040E1F700C0000024C04817590795
S1130D006A077B07F8F089819A81AB81BC81481717
S1130D1059076A077B07B0F08897A105B10590F4DD
S1130D2084E00E94CE000E94C70486E291E00E9403
S1130D30E3049FEF23EF81E0915020408040E1F7EE
S1130D4000C0000080E00E94CE009FEF22E587E013
S1130D50915020408040E1F700C00000CE01019690
S1130D600E949B0889819A81AB81BC814E97A1091D
S1130D70B1098B3C9340A105B10508F428CFCE01FD
S1130D8001960E949B0830C082E00E94CE000E941F
S1130D90C704CE0101960E949B0886E391E00E945D
S1130DA0E30469817A818B819C810E945D0581E1E4
S1130DB091E00E94E3048FEF93EC29E0815090408E
S1130DC02040E1F700C0000080E00E94CE00CE0188
S1130DD001960E949B088FEF99E628E1815090408C
S1130DE02040E1F700C0000089819A81AB81BC8179
S1130DF04E97A109B1098B3C9340A105B10520F69A
S1130E00E1CECF93C82F0E946B088C2FCC0F990B87
S1130E10815A9F4F880F0E9482080E947808CF91C0
S1130E2008951F920F920FB60F9211242F933F93A0
S1130E304F935F936F937F938F939F93AF93BF93DE
S1130E40EF93FF9380915E0190915F0101969093DF
S1130E505F0180935E01813D934069F480E782BF26
S1130E6010925F0110925E01E0916A01F0916B01B2
S1130E70309709F00995FF91EF91BF91AF919F9140
S1130E808F917F916F915F914F913F912F910F902F
S1130E900FBE0F901F9018951F920F920FB60F92CE
S1130EA011242F933F934F935F936F937F938F936B
S1130EB09F93AF93BF93EF93FF9380915C019091C5
S1130EC05D01019690935D0180935C01883E93409F
S1130ED059F410925D0110925C01E0916801F09167
S1130EE06901309709F00995FF91EF91BF91AF9196
S1130EF09F918F917F916F915F914F913F912F912E
S1130F000F900FBE0F901F9018958FB58E7F8FBDD9
S1130F108FB58D7F8FBD8EB5877F8EBD8EB58F7E4D
S1130F208EBD1DBC1CBC89B7846089BF08958EB575
S1130F3081608EBD8EB582608EBD8EB58B7F8EBD79
S1130F4008958EB58E7F8EBD8EB58D7F8EBD8EB588
S1130F508B7F8EBD08951F920F920FB60F921124AE
S1130F602F933F934F935F936F937F938F939F93AD
S1130F70AF93BF93EF93FF9380915A0190915B01DC
S1130F80019690935B0180935A01049769F480E77A
S1130F9082BF10925B0110925A01E0916601F091B8
S1130FA06701309709F00995FF91EF91BF91AF91D7
S1130FB09F918F917F916F915F914F913F912F916D
S1130FC00F900FBE0F901F9018951F920F920FB69F
S1130FD00F9211242F933F934F935F936F937F93BB
S1130FE08F939F93AF93BF93EF93FF938091580197
S1130FF090915901019690935901809358010A9751
S113100059F41092590110925801E0916401F09141
S11310106501309709F00995FF91EF91BF91AF9168
S11310209F918F917F916F915F914F913F912F91FC
S11310300F900FBE0F901F9018951F920F920FB62E
S11310400F9211242F933F938F939F9386B597B557
S11310509093570180935601209160002130A1F4B0
S11310602091540130915501821B930B880F991FD5
S1131070880F991F90936101809360018EB58F7BD7
S11310808EBD1092600016C0211114C0209154012D
S113109030915501821B930B880F991F880F991F5C
S11310A090936301809362018EB580648EBD81E06C
S11310B0809360008091560190915701909355015F
S11310C0809354019F918F913F912F910F900FBE68
S11310D00F901F90189585B5886085BD85B580648F
S11310E085BD85B58F7E85BD85B5806285BD089536
S11310F085B58E7F85BD85B58D7F85BD85B58460BD
S113110085BD089583BD089541E061E082E00E94B9
S1131110920140E061E082E00E94080240E060E069
S113112082E00E94920140E060E082E00E940802B6
S11311300E9485070895CF92DF92EF92FF920F935A
S11311401F93CF93DF931F92CDB7DEB78C011DBCE5
S11311501CBCAE014F5F5F4F60E082E00E947E02E4
S113116041E061E082E00E94080285E38A95F1F79C
S1131170000040E061E082E00E94080207C0AE0186
S11311804F5F5F4F60E082E00E947E028981882386
S1131190B1F399F10E949707AE014F5F5F4F60E092
S11311A082E00E947E0207C0AE014F5F5F4F60E0A5
S11311B082E00E947E0289818111F6CFCCB4DDB435
S11311C0E12CF12C0E94A107C701B601660F771F1D
S11311D0881F991F660F771F881F991F0E94360961
S11311E026E933E44BE85CE30E949C090E9407096A
S11311F0F80160837183828393830F90DF91CF9191
S11312001F910F91FF90EF90DF90CF9008950E946F
S11312107B0988F09F5798F0B92F9927B751B0F000
S1131220E1F0660F771F881F991F1AF0BA95C9F766
S113123014C0B13091F00E949509B1E008950C9466
S11312409509672F782F8827B85F39F0B93FCCF319
S1131250869577956795B395D9F73EF490958095E3
S1131260709561957F4F8F4F9F4F0895E89409C003
S113127097FB3EF490958095709561957F4F8F4FC5
S11312809F4F9923A9F0F92F96E9BB279395F695DB
S1131290879577956795B795F111F8CFFAF4BB0F59
S11312A011F460FF1BC06F5F7F4F8F4F9F4F16C0BD
S11312B0882311F096E911C0772321F09EE8872F47
S11312C0762F05C0662371F096E8862F70E060E003
S11312D02AF09A95660F771F881FDAF7880F96957C
S11312E0879597F9089557FD9058440F551F59F065
S11312F05F3F71F04795880F97FB991F61F09F3FFF
S113130079F087950895121613061406551FF2CF27
S11313104695F1DF08C0161617061806991FF1CF77
S113132086957105610508940895E894BB2766279E
S11313307727CB0197F908950E94AF090C94200AEE
S11313400E94120A38F00E94190A20F0952311F025
S11313500C94090A0C940F0A11240C9496090E9407
S1131360730970F3959FC1F3950F50E0551F629F69
S1131370F001729FBB27F00DB11D639FAA27F00DEA
S1131380B11DAA1F649F6627B00DA11D661F829F11
S11313902227B00DA11D621F739FB00DA11D621FF6
S11313A0839FA00D611D221F749F3327A00D611D13
S11313B0231F849F600D211D822F762F6A2F1124F5
S11313C09F5750409AF0F1F088234AF0EE0FFF1F28
S11313D0BB1F661F771F881F91505040A9F79E3F7F
S11313E0510580F00C94090A0C9496095F3FE4F3CC
S11313F0983ED4F3869577956795B795F795E795D5
S11314009F5FC1F7FE2B880F911D9695879597F9DD
S1131410089597F99F6780E870E060E008959FEF72
S113142080EC089500240A94161617061806090677
S1131430089500240A941216130614060506089546
S1131440092E0394000C11F4882352F0BB0F40F4CE
S1131450BF2B11F460FF04C06F5F7F4F8F4F9F4F0E
S11314600895A1E21A2EAA1BBB1BFD010DC0AA1FE1
S1131470BB1FEE1FFF1FA217B307E407F50720F0F9
S1131480A21BB30BE40BF50B661F771F881F991F74
S11314901A9469F760957095809590959B01AC01BD
S10D14A0BD01CF010895F894FFCFB9
S11314AA01204175746F6E6F6D6F7573204361729D
S11314BA0047726164756174696F6E0050726F6A75
S11314CA65637400205465616D204D656D626572B3
S11314DA733A002D416D6D6172204D61686D6F75AF
S11314EA64002D4D61686D6F7564205461686F7571
S11314FA6E002D4D6F68616D656420456C5361798A
S113150A6564002D4D6F68616D6D6564204B68617B
S113151A6C6964004E6F20537061636520546F20B8
S113152A5072696E7420796F7572207478740054DD
S113153A68616E6B20796F7500465744204E656169
S113154A72657374206F626A2E2061667465723ADA
S113155A0020636D00526F74617465205269676874
S113156A74202D2D3E00526F74617465204C65669B
S113157A74203C2D2D00425744204E6561726573D8
S111158A74206F626A2E2061667465723A00E6
S9030000FC
